{
  "contractName": "DecentralBank",
  "abi": [
    {
      "inputs": [
        {
          "internalType": "contract RWD",
          "name": "_rwd",
          "type": "address"
        },
        {
          "internalType": "contract Tether",
          "name": "_tether",
          "type": "address"
        }
      ],
      "stateMutability": "nonpayable",
      "type": "constructor"
    },
    {
      "inputs": [
        {
          "internalType": "address",
          "name": "",
          "type": "address"
        }
      ],
      "name": "hasStacked",
      "outputs": [
        {
          "internalType": "bool",
          "name": "",
          "type": "bool"
        }
      ],
      "stateMutability": "view",
      "type": "function"
    },
    {
      "inputs": [
        {
          "internalType": "address",
          "name": "",
          "type": "address"
        }
      ],
      "name": "isStacking",
      "outputs": [
        {
          "internalType": "bool",
          "name": "",
          "type": "bool"
        }
      ],
      "stateMutability": "view",
      "type": "function"
    },
    {
      "inputs": [],
      "name": "name",
      "outputs": [
        {
          "internalType": "string",
          "name": "",
          "type": "string"
        }
      ],
      "stateMutability": "view",
      "type": "function"
    },
    {
      "inputs": [],
      "name": "owner",
      "outputs": [
        {
          "internalType": "address",
          "name": "",
          "type": "address"
        }
      ],
      "stateMutability": "view",
      "type": "function"
    },
    {
      "inputs": [],
      "name": "rwd",
      "outputs": [
        {
          "internalType": "contract RWD",
          "name": "",
          "type": "address"
        }
      ],
      "stateMutability": "view",
      "type": "function"
    },
    {
      "inputs": [
        {
          "internalType": "address",
          "name": "",
          "type": "address"
        }
      ],
      "name": "stackingBalance",
      "outputs": [
        {
          "internalType": "uint256",
          "name": "",
          "type": "uint256"
        }
      ],
      "stateMutability": "view",
      "type": "function"
    },
    {
      "inputs": [
        {
          "internalType": "uint256",
          "name": "",
          "type": "uint256"
        }
      ],
      "name": "stakers",
      "outputs": [
        {
          "internalType": "address",
          "name": "",
          "type": "address"
        }
      ],
      "stateMutability": "view",
      "type": "function"
    },
    {
      "inputs": [],
      "name": "symbol",
      "outputs": [
        {
          "internalType": "string",
          "name": "",
          "type": "string"
        }
      ],
      "stateMutability": "view",
      "type": "function"
    },
    {
      "inputs": [],
      "name": "tether",
      "outputs": [
        {
          "internalType": "contract Tether",
          "name": "",
          "type": "address"
        }
      ],
      "stateMutability": "view",
      "type": "function"
    },
    {
      "inputs": [
        {
          "internalType": "uint256",
          "name": "_amount",
          "type": "uint256"
        }
      ],
      "name": "depositTokens",
      "outputs": [],
      "stateMutability": "payable",
      "type": "function"
    },
    {
      "inputs": [],
      "name": "issueRewards",
      "outputs": [],
      "stateMutability": "nonpayable",
      "type": "function"
    }
  ],
  "bytecode": "0x60806040526040518060400160405280600e81526020017f446563656e7472616c2042616e6b00000000000000000000000000000000000081525060019080519060200190620000519291906200019d565b506040518060400160405280600281526020017f4442000000000000000000000000000000000000000000000000000000000000815250600290805190602001906200009f9291906200019d565b50348015620000ad57600080fd5b50604051620013d1380380620013d18339818101604052810190620000d3919062000310565b336000806101000a81548173ffffffffffffffffffffffffffffffffffffffff021916908373ffffffffffffffffffffffffffffffffffffffff16021790555081600460006101000a81548173ffffffffffffffffffffffffffffffffffffffff021916908373ffffffffffffffffffffffffffffffffffffffff16021790555080600360006101000a81548173ffffffffffffffffffffffffffffffffffffffff021916908373ffffffffffffffffffffffffffffffffffffffff1602179055505050620003bc565b828054620001ab9062000386565b90600052602060002090601f016020900481019282620001cf57600085556200021b565b82601f10620001ea57805160ff19168380011785556200021b565b828001600101855582156200021b579182015b828111156200021a578251825591602001919060010190620001fd565b5b5090506200022a91906200022e565b5090565b5b80821115620002495760008160009055506001016200022f565b5090565b600080fd5b600073ffffffffffffffffffffffffffffffffffffffff82169050919050565b60006200027f8262000252565b9050919050565b6000620002938262000272565b9050919050565b620002a58162000286565b8114620002b157600080fd5b50565b600081519050620002c5816200029a565b92915050565b6000620002d88262000272565b9050919050565b620002ea81620002cb565b8114620002f657600080fd5b50565b6000815190506200030a81620002df565b92915050565b600080604083850312156200032a57620003296200024d565b5b60006200033a85828601620002b4565b92505060206200034d85828601620002f9565b9150509250929050565b7f4e487b7100000000000000000000000000000000000000000000000000000000600052602260045260246000fd5b600060028204905060018216806200039f57607f821691505b60208210811415620003b657620003b562000357565b5b50919050565b61100580620003cc6000396000f3fe60806040526004361061009c5760003560e01c80637819728911610064578063781972891461019c5780638da5cb5b146101d957806395d89b4114610204578063b0370e0c1461022f578063dd49756e14610246578063fd5e6dd1146102625761009c565b806306fdde03146100a157806307e9417a146100cc5780631a8972d31461010957806332ac90cf146101345780635efc071a14610171575b600080fd5b3480156100ad57600080fd5b506100b661029f565b6040516100c39190610a2b565b60405180910390f35b3480156100d857600080fd5b506100f360048036038101906100ee9190610ab0565b61032d565b6040516101009190610af8565b60405180910390f35b34801561011557600080fd5b5061011e61034d565b60405161012b9190610b72565b60405180910390f35b34801561014057600080fd5b5061015b60048036038101906101569190610ab0565b610373565b6040516101689190610af8565b60405180910390f35b34801561017d57600080fd5b50610186610393565b6040516101939190610bae565b60405180910390f35b3480156101a857600080fd5b506101c360048036038101906101be9190610ab0565b6103b9565b6040516101d09190610be2565b60405180910390f35b3480156101e557600080fd5b506101ee6103d1565b6040516101fb9190610c0c565b60405180910390f35b34801561021057600080fd5b506102196103f5565b6040516102269190610a2b565b60405180910390f35b34801561023b57600080fd5b50610244610483565b005b610260600480360381019061025b9190610c53565b6106af565b005b34801561026e57600080fd5b5061028960048036038101906102849190610c53565b610953565b6040516102969190610c0c565b60405180910390f35b600180546102ac90610caf565b80601f01602080910402602001604051908101604052809291908181526020018280546102d890610caf565b80156103255780601f106102fa57610100808354040283529160200191610325565b820191906000526020600020905b81548152906001019060200180831161030857829003601f168201915b505050505081565b60076020528060005260406000206000915054906101000a900460ff1681565b600460009054906101000a900473ffffffffffffffffffffffffffffffffffffffff1681565b60086020528060005260406000206000915054906101000a900460ff1681565b600360009054906101000a900473ffffffffffffffffffffffffffffffffffffffff1681565b60066020528060005260406000206000915090505481565b60008054906101000a900473ffffffffffffffffffffffffffffffffffffffff1681565b6002805461040290610caf565b80601f016020809104026020016040519081016040528092919081815260200182805461042e90610caf565b801561047b5780601f106104505761010080835404028352916020019161047b565b820191906000526020600020905b81548152906001019060200180831161045e57829003601f168201915b505050505081565b60008054906101000a900473ffffffffffffffffffffffffffffffffffffffff1673ffffffffffffffffffffffffffffffffffffffff163373ffffffffffffffffffffffffffffffffffffffff1614610511576040517f08c379a000000000000000000000000000000000000000000000000000000000815260040161050890610d2d565b60405180910390fd5b60005b6005805490508110156106ac576000600a600660006005858154811061053d5761053c610d4d565b5b9060005260206000200160009054906101000a900473ffffffffffffffffffffffffffffffffffffffff1673ffffffffffffffffffffffffffffffffffffffff1673ffffffffffffffffffffffffffffffffffffffff168152602001908152602001600020546105ad9190610dda565b9050600081111561069857600460009054906101000a900473ffffffffffffffffffffffffffffffffffffffff1673ffffffffffffffffffffffffffffffffffffffff1663a9059cbb6005848154811061060a57610609610d4d565b5b9060005260206000200160009054906101000a900473ffffffffffffffffffffffffffffffffffffffff16836040518363ffffffff1660e01b8152600401610653929190610e0b565b6020604051808303816000875af1158015610672573d6000803e3d6000fd5b505050506040513d601f19601f820116820180604052508101906106969190610e60565b505b5080806106a490610e8d565b915050610514565b50565b600081116106f2576040517f08c379a00000000000000000000000000000000000000000000000000000000081526004016106e990610f22565b60405180910390fd5b600360009054906101000a900473ffffffffffffffffffffffffffffffffffffffff1673ffffffffffffffffffffffffffffffffffffffff166323b872dd3330846040518463ffffffff1660e01b815260040161075193929190610f42565b6020604051808303816000875af1158015610770573d6000803e3d6000fd5b505050506040513d601f19601f820116820180604052508101906107949190610e60565b5080600660003373ffffffffffffffffffffffffffffffffffffffff1673ffffffffffffffffffffffffffffffffffffffff16815260200190815260200160002060008282546107e49190610f79565b92505081905550600860003373ffffffffffffffffffffffffffffffffffffffff1673ffffffffffffffffffffffffffffffffffffffff16815260200190815260200160002060009054906101000a900460ff166108a0576005339080600181540180825580915050600190039060005260206000200160009091909190916101000a81548173ffffffffffffffffffffffffffffffffffffffff021916908373ffffffffffffffffffffffffffffffffffffffff1602179055505b6001600760003373ffffffffffffffffffffffffffffffffffffffff1673ffffffffffffffffffffffffffffffffffffffff16815260200190815260200160002060006101000a81548160ff0219169083151502179055506001600860003373ffffffffffffffffffffffffffffffffffffffff1673ffffffffffffffffffffffffffffffffffffffff16815260200190815260200160002060006101000a81548160ff02191690831515021790555050565b6005818154811061096357600080fd5b906000526020600020016000915054906101000a900473ffffffffffffffffffffffffffffffffffffffff1681565b600081519050919050565b600082825260208201905092915050565b60005b838110156109cc5780820151818401526020810190506109b1565b838111156109db576000848401525b50505050565b6000601f19601f8301169050919050565b60006109fd82610992565b610a07818561099d565b9350610a178185602086016109ae565b610a20816109e1565b840191505092915050565b60006020820190508181036000830152610a4581846109f2565b905092915050565b600080fd5b600073ffffffffffffffffffffffffffffffffffffffff82169050919050565b6000610a7d82610a52565b9050919050565b610a8d81610a72565b8114610a9857600080fd5b50565b600081359050610aaa81610a84565b92915050565b600060208284031215610ac657610ac5610a4d565b5b6000610ad484828501610a9b565b91505092915050565b60008115159050919050565b610af281610add565b82525050565b6000602082019050610b0d6000830184610ae9565b92915050565b6000819050919050565b6000610b38610b33610b2e84610a52565b610b13565b610a52565b9050919050565b6000610b4a82610b1d565b9050919050565b6000610b5c82610b3f565b9050919050565b610b6c81610b51565b82525050565b6000602082019050610b876000830184610b63565b92915050565b6000610b9882610b3f565b9050919050565b610ba881610b8d565b82525050565b6000602082019050610bc36000830184610b9f565b92915050565b6000819050919050565b610bdc81610bc9565b82525050565b6000602082019050610bf76000830184610bd3565b92915050565b610c0681610a72565b82525050565b6000602082019050610c216000830184610bfd565b92915050565b610c3081610bc9565b8114610c3b57600080fd5b50565b600081359050610c4d81610c27565b92915050565b600060208284031215610c6957610c68610a4d565b5b6000610c7784828501610c3e565b91505092915050565b7f4e487b7100000000000000000000000000000000000000000000000000000000600052602260045260246000fd5b60006002820490506001821680610cc757607f821691505b60208210811415610cdb57610cda610c80565b5b50919050565b7f4f6e6c79206f776e65722063616e206973737565207265776172647300000000600082015250565b6000610d17601c8361099d565b9150610d2282610ce1565b602082019050919050565b60006020820190508181036000830152610d4681610d0a565b9050919050565b7f4e487b7100000000000000000000000000000000000000000000000000000000600052603260045260246000fd5b7f4e487b7100000000000000000000000000000000000000000000000000000000600052601260045260246000fd5b7f4e487b7100000000000000000000000000000000000000000000000000000000600052601160045260246000fd5b6000610de582610bc9565b9150610df083610bc9565b925082610e0057610dff610d7c565b5b828204905092915050565b6000604082019050610e206000830185610bfd565b610e2d6020830184610bd3565b9392505050565b610e3d81610add565b8114610e4857600080fd5b50565b600081519050610e5a81610e34565b92915050565b600060208284031215610e7657610e75610a4d565b5b6000610e8484828501610e4b565b91505092915050565b6000610e9882610bc9565b91507fffffffffffffffffffffffffffffffffffffffffffffffffffffffffffffffff821415610ecb57610eca610dab565b5b600182019050919050565b7f416d6f756e74206d7573742062652067726561746572207468616e2030000000600082015250565b6000610f0c601d8361099d565b9150610f1782610ed6565b602082019050919050565b60006020820190508181036000830152610f3b81610eff565b9050919050565b6000606082019050610f576000830186610bfd565b610f646020830185610bfd565b610f716040830184610bd3565b949350505050565b6000610f8482610bc9565b9150610f8f83610bc9565b9250827fffffffffffffffffffffffffffffffffffffffffffffffffffffffffffffffff03821115610fc457610fc3610dab565b5b82820190509291505056fea26469706673582212205a1bd4033a82eeac30490c5defe1922e37d68077da8d1ecc53af745c8b4796a864736f6c634300080b0033",
  "immutableReferences": {},
  "source": "pragma solidity ^0.8.11;\r\n\r\nimport './RWD.sol';\r\nimport './Tether.sol';\r\n\r\ncontract DecentralBank {\r\n    address public owner;\r\n    string public name = 'Decentral Bank';\r\n    string public symbol = 'DB';\r\n    Tether public tether;\r\n    RWD public rwd;\r\n\r\n    address [] public stakers;\r\n\r\n    mapping (address => uint) public stackingBalance;\r\n    mapping (address => bool) public isStacking;\r\n    mapping (address => bool) public hasStacked;\r\n\r\n\r\n    constructor(RWD _rwd, Tether _tether) public {\r\n        owner = msg.sender;\r\n        rwd = _rwd;\r\n        tether = _tether;\r\n    }\r\n\r\n    // @prams _amount: uint\r\n    // deposit ether to the bank account or to this contract\r\n    function depositTokens(uint _amount) public payable {\r\n        require(_amount > 0,'Amount must be greater than 0'); \r\n        tether.transferFrom(msg.sender, address(this), _amount);\r\n        stackingBalance[msg.sender] += _amount;\r\n\r\n        if(!hasStacked[msg.sender]) {\r\n            stakers.push(msg.sender);\r\n        }\r\n\r\n        isStacking[msg.sender] = true;\r\n        hasStacked[msg.sender] = true;\r\n    }\r\n\r\n\r\n    // issue reward to the staking account\r\n    function issueRewards() public {\r\n        require(msg.sender == owner, 'Only owner can issue rewards');\r\n        for(uint i = 0; i < stakers.length; i++) {\r\n            uint totalStakingBalance = stackingBalance[stakers[i]] / 10;\r\n            if(totalStakingBalance > 0) {\r\n                rwd.transfer(stakers[i], totalStakingBalance);\r\n            }\r\n            \r\n\r\n        }\r\n    }\r\n\r\n\r\n}\r\n",
  "sourcePath": "D:\\Ganesh\\personal\\normal\\wr\\My\\BlockChain\\ETH\\my-app\\src\\contracts\\DecentralBank.sol",
  "compiler": {
    "name": "solc",
    "version": "0.8.11+commit.d7f03943.Emscripten.clang"
  },
  "schemaVersion": "3.4.4",
  "updatedAt": "2022-01-02T16:06:38.516Z",
  "devdoc": {
    "kind": "dev",
    "methods": {},
    "version": 1
  },
  "userdoc": {
    "kind": "user",
    "methods": {},
    "version": 1
  }
}